:100000000C945D000C9485000C9485000C94850084
:100010000C9485000C9485000C9485000C9485004C
:100020000C9485000C9485000C9485000C94450478
:100030000C9485000C9485000C9485000C9485002C
:100040000C94FB030C9485000C94C9030C94A3033B
:100050000C9485000C9485000C9485000C9485000C
:100060000C9485000C9485000000000024002700FB
:100070002A0000000000250028002B0004040404CE
:100080000404040402020202020203030303030342
:10009000010204081020408001020408102001021F
:1000A00004081020000000080002010000030407FB
:1000B0000000000000000000060511241FBECFEF65
:1000C000D8E0DEBFCDBF11E0A0E0B1E0ECEAFFE098
:1000D00002C005900D92A631B107D9F721E0A6E143
:1000E000B1E001C01D92AB3FB207E1F710E0CDE5F2
:1000F000D0E004C02197FE010E94C907CC35D1078A
:10010000C9F70E9446050C94D4070C940000CF92C6
:10011000DF92EF92FF920F931F93CF93DF936C01C7
:100120007A018B01C0E0D0E0CE15DF0589F0D8015F
:100130006D918D01D601ED91FC910190F081E02D42
:10014000C6010995892B11F47E0102C02196ECCFDE
:10015000C701DF91CF911F910F91FF90EF90DF903A
:10016000CF900895089580E090E00895FC01538DAC
:10017000448D252F30E0842F90E0821B930B541781
:1001800010F0CF96089501970895FC01918D828D0E
:10019000981761F0828DDF01A80FB11D5D968C91DB
:1001A000928D9F5F9F73928F90E008958FEF9FEFE6
:1001B0000895FC01918D828D981731F0828DE80FA2
:1001C000F11D858D90E008958FEF9FEF0895FC015C
:1001D000918D228D892F90E0805C9F4F821B910929
:1001E0008F73992708958FE491E00E94E70021E042
:1001F000892B09F420E0822F0895FC01848DDF0112
:10020000A80FB11DA35ABF4F2C91848D90E0019689
:100210008F739927848FA689B7892C93A089B18978
:100220008C9180648C93938D848D981306C0028882
:10023000F389E02D80818F7D80830895EF92FF9276
:100240000F931F93CF93DF93EC0181E0888F9B8DF9
:100250008C8D981305C0E889F989808185FD24C0BB
:10026000F62E0B8D10E00F5F1F4F0F731127E02E3E
:100270008C8DE8120CC00FB607FCFACFE889F9891B
:10028000808185FFF5CFCE010E94FD00F1CF8B8DDF
:10029000FE01E80FF11DE35AFF4FF0820B8FEA8950
:1002A000FB898081806207C0EE89FF896083E889CD
:1002B000F98980818064808381E090E0DF91CF9133
:1002C0001F910F91FF90EF900895CF93DF93EC0172
:1002D000888D8823C9F0EA89FB89808185FD05C066
:1002E000A889B9898C9186FD0FC00FB607FCF5CFA0
:1002F000808185FFF2CFA889B9898C9185FFEDCFE8
:10030000CE010E94FD00E7CFDF91CF91089580E0FC
:1003100090E0892B29F00E94F30081110C940000D9
:10032000089590E0FC01EC55FF4F3491FC01E0573B
:10033000FF4F2491FC01E458FF4FE491EE2309F4B0
:100340003BC0332339F1333091F038F43130A9F028
:10035000323001F584B58F7D12C0373091F03830DE
:10036000A1F03430B9F4809180008F7D03C080917A
:1003700080008F77809380000DC084B58F7784BD17
:1003800009C08091B0008F7703C08091B0008F7D4D
:100390008093B000F0E0EE0FFF1FEE58FF4FA591E5
:1003A000B4918FB7F894EC91611103C020952E237E
:1003B00001C02E2B2C938FBF0895CF93DF9390E035
:1003C000FC01E057FF4F2491FC01E458FF4F84915A
:1003D000882361F190E0880F991FFC01E859FF4FD5
:1003E000C591D491FC01EE58FF4FA591B4916111D4
:1003F00009C09FB7F8948881209582238883EC9167
:100400002E230BC0623061F49FB7F8943881822F9D
:10041000809583238883EC912E2B2C939FBF06C05D
:100420008FB7F894E8812E2B28838FBFDF91CF916F
:1004300008958E3008F08E508770806480937C0021
:1004400080917A00806480937A0080917A0086FDA2
:10045000FCCF809178002091790090E0922B089554
:100460003FB7F8948091410190914201A0914301DE
:10047000B091440126B5A89B05C02F3F19F0019605
:10048000A11DB11D3FBFBA2FA92F982F8827820F1A
:10049000911DA11DB11DBC01CD0142E0660F771F6A
:1004A000881F991F4A95D1F70895CF92DF92EF9256
:1004B000FF92CF93DF93EC01603282E078070CF07B
:1004C0003DC077FD06C0653B71052CF064EB70E024
:1004D00002C060E070E0898128E830E06901C81A54
:1004E000D10887FDD394CC0CDD1CCC0CDD1C0D2C6D
:1004F000000CEE08FF088A8128E532E0281B31094C
:1005000087FD3395220F331F220F331FC901330F8D
:10051000AA0BBB0B9C01AD012C193D094E095F09CB
:10052000DB010E94840724EB30E040E050E00E94B1
:100530005A07C20ED31EE41EF51EB60188818C3008
:1005400080F5998148E850E0491B510997FD539582
:10055000440F551F440F551F6417750784F09A8187
:1005600028E532E0291B310997FD3395220F331F0F
:10057000220F331FAB01261737070CF4A901425095
:100580005109440F551F2FB7F89490E0FC01EE0F6E
:10059000FF1F8E0F9F1FFC01E85EFE4F52834183B9
:1005A0002FBFDF91CF91FF90EF90DF90CF90089514
:1005B0001F93CF93DF93EC01162F88818C3008F0C6
:1005C0004EC061E0812F0E94DD018881E82FF0E0BC
:1005D0009F01220F331FE20FF31FE85EFE4F1F73D0
:1005E0009081907C192B108319821A826CE00E94F2
:1005F000BD079CE0899FB001112440E050E09A01C2
:10060000260F371FF901EE0FFF1F2E0F3F1FF901B5
:10061000E85EFE4F908196FD16C04F5F5F4F4C30F5
:10062000510569F781110FC01092800082E080931C
:1006300081001092850010928400B19A80916F0021
:10064000826080936F00E881F0E0CF01880F991FEE
:10065000E80FF91FE85EFE4F808180648083888107
:10066000DF91CF911F910895FC01909117019C306B
:10067000A0F481E0890F809317019083892F90E087
:10068000FC01EE0FFF1F8E0F9F1FFC01E85EFE4F67
:1006900088EB9BE09283818308958FEF8083089598
:1006A0008F929F92AF92BF920F931F93CF93DF933E
:1006B000CDB7DEB7A1970FB6F894DEBF0FBECDBFA2
:1006C00019A2423008F44AE08E010F5D1F4F842EBC
:1006D000912CA12CB12CA50194010E948C07E62F2E
:1006E000B901CA0101501109EA3014F4E05D01C0FA
:1006F000E95CD801EC93232B242B252B61F7011502
:10070000110571F0F80101900020E9F73197AF0170
:10071000401B510BB8018FE491E00E94870002C09A
:1007200080E090E0A1960FB6F894DEBF0FBECDBF7B
:10073000DF91CF911F910F91BF90AF909F908F90BD
:1007400008950E94CF071F920F920FB60F921124A7
:100750002F933F934F935F936F937F938F939F93C9
:10076000AF93BF93EF93FF938FE491E00E94FD005E
:10077000FF91EF91BF91AF919F918F917F916F9179
:100780005F914F913F912F910F900FBE0F901F904F
:1007900018951F920F920FB60F9211242F938F93DB
:1007A0009F93EF93FF93E0915F01F091600180814F
:1007B000E0916501F091660182FD12C09081809107
:1007C00068018F5F8F7320916901821751F0E0916A
:1007D0006801F0E0E15BFE4F958F8093680101C0F6
:1007E0008081FF91EF919F918F912F910F900FBE7C
:1007F0000F901F9018951F920F920FB60F92112411
:100800002F933F938F939F93AF93BF9380913D011D
:1008100090913E01A0913F01B091400130913C0187
:1008200023E0230F2D3720F40196A11DB11D05C033
:1008300026E8230F0296A11DB11D20933C01809351
:100840003D0190933E01A0933F01B0934001809100
:10085000410190914201A0914301B0914401019660
:10086000A11DB11D8093410190934201A0934301CA
:10087000B0934401BF91AF919F918F913F912F9180
:100880000F900FBE0F901F9018951F920F920FB6EA
:100890000F9211242F933F934F935F936F937F9306
:1008A0008F939F93AF93BF93EF93FF938091160124
:1008B00087FF05C010928500109284001BC0209114
:1008C0001601022E000C330B8091170190E02817BF
:1008D000390784F480911601082E000C990BFC0155
:1008E000EE0FFF1F8E0F9F1FFC01E85EFE4F808101
:1008F00086FD15C0809116018F5F809316012091AF
:100900001601022E000C330B8091170190E028177E
:100910003907C4F4809116018C3064F113C08091C2
:100920001601082E000C990BFC01EE0FFF1F8E0F15
:100930009F1FFC01E85EFE4F808160E08F730E9484
:100940009101D8CF809184009091850004968034E5
:100950009C4918F480E49CE905C080918400909142
:100960008500049690938900809388008FEF809390
:1009700016013BC0209184003091850080911601C2
:10098000082E000C990BFC01EE0FFF1F8E0F9F1F0E
:10099000FC01E85EFE4F81819281820F931F90934C
:1009A00089008093880080911601082E000C990B15
:1009B000FC01EE0FFF1F8E0F9F1FFC01E85EFE4F34
:1009C000808186FF12C080911601082E000C990BC1
:1009D000FC01EE0FFF1F8E0F9F1FFC01E85EFE4F14
:1009E000808161E08F730E949101FF91EF91BF912F
:1009F000AF919F918F917F916F915F914F913F91B7
:100A00002F910F900FBE0F901F901895EFE4F1E01B
:100A10001382128288EE93E0A0E0B0E08483958395
:100A2000A683B78384E091E09183808385EC90E096
:100A30009587848784EC90E09787868780EC90E0A8
:100A4000918B808B81EC90E0938B828B82EC90E099
:100A5000958B848B86EC90E0978B868B118E128E13
:100A6000138E148E88EF91E00E94340385EF91E09D
:100A70000E94340382EF91E00E9434038FEE91E0F4
:100A80000E9434038CEE91E00C943403789484B586
:100A9000826084BD84B5816084BD85B5826085BD7A
:100AA00085B5816085BD80916E00816080936E0008
:100AB00010928100809181008260809381008091FA
:100AC00081008160809381008091800081608093AB
:100AD00080008091B10084608093B1008091B0006B
:100AE00081608093B00080917A00846080937A0066
:100AF00080917A00826080937A0080917A00816090
:100B000080937A0080917A00806880937A001092B6
:100B1000C10065E070E088EF91E00E94D80262E0D9
:100B200070E085EF91E00E94D80269E070E082EF0A
:100B300091E00E94D8026BE070E08FEE91E00E949D
:100B4000D80263E070E08CEE91E00E94D80261E090
:100B500085E00E94DD0161E082E00E94DD0161E04C
:100B600089E00E94DD0161E08BE00E94DD0161E02F
:100B700083E00E94DD0160E08EE00E94DD0160E024
:100B80008FE00E94DD0160E080E10E94DD0160E015
:100B900081E10E94DD0160E082E10E94DD016AE501
:100BA00070E088EF91E00E9455026AE570E085EF01
:100BB00091E00E9455026AE570E082EF91E00E94A8
:100BC00055026AE570E08FEE91E00E9455026AE5F9
:100BD00070E08CEE91E00E9455020E9430024B01C1
:100BE0005C0148EBC42E4BE0D42EE12CF12C0E948A
:100BF0003002DC01CB0188199909AA09BB09883E9A
:100C00009340A105B10558F021E0C21AD108E108CE
:100C1000F10888EE880E83E0981EA11CB11CC11457
:100C2000D104E104F10419F7E0915F01F091600152
:100C300082E08083E0915B01F0915C011082E091A1
:100C40005D01F0915E018FEC808310926701E0916D
:100C50006301F091640186E08083E0916101F0918D
:100C60006201808180618083E0916101F091620185
:100C7000808188608083E0916101F09162018081D0
:100C800080688083E0916101F091620180818F7DB5
:100C900080833AEF432E512C612C712C8EE00E9400
:100CA00019028C0190934E0180934D018FE00E94B8
:100CB00019027C0190934C0180934B0180E10E94CA
:100CC00019024C0190934A018093490181E10E94ED
:100CD00019026C01909348018093470182E10E94C0
:100CE0001902EC019093460180934501C601DD0C89
:100CF000AA0BBB0B9C01AD01225C3140410951099B
:100D0000ACE4BFEF0E948707A30192010E945A073B
:100D1000DA01C9018C549F4FAF4FBF4FB7FD09C0D7
:100D20001C0185EB2816310434F024EB222E312CE3
:100D300002C0212C312CC801110FAA0BBB0B9C0146
:100D4000AD012C57314041095109ACE4BFEF0E947D
:100D500087072EE031E040E050E00E945A07DA01B8
:100D6000C9018C549F4FAF4FBF4FB7FD07C08C01D7
:100D7000853B91052CF004EB10E002C000E010E090
:100D8000CE01DD0FAA0BBB0B9C01AD01225C3140F3
:100D900041095109A4EBB0E00E947907A301920137
:100DA0000E945A0757FD09C0690125EBC216D104FC
:100DB00034F094EBC92ED12C02C0C12CD12C092CBB
:100DC000000CAA08BB08A5019401205E314041092E
:100DD0005109A4EBB0E00E94790720EA30E040E03E
:100DE00050E00E945A07E901253B310514F0C4EB9D
:100DF000D0E0D7FF02C0C0E0D0E0C701FF0CAA0BD3
:100E0000BB0B9C01AD01225C314041095109A4EBAF
:100E1000B0E00E947907A30192010E945A0757FD92
:100E200008C07901253B310534F084EBE82EF12C24
:100E300002C0E12CF12CB7FE14C0E0914F01F091FB
:100E400050010190F081E02D6DE28FE491E0099571
:100E500066277727CB01681979098A099B094AE037
:100E600003C04AE0C501B4010E94500342E050E0D3
:100E700062E171E08FE491E00E948700B10188EFA8
:100E800091E00E945502B80185EF91E00E94550261
:100E9000B60182EF91E00E945502BE018FEE91E013
:100EA0000E945502B7018CEE91E00E9455020E940B
:100EB0008701F4CE052E97FB1EF400940E94710763
:100EC00057FD07D00E948C0707FC03D04EF40C940A
:100ED000710750954095309521953F4F4F4F5F4F8B
:100EE000089590958095709561957F4F8F4F9F4F96
:100EF00008950E94AE07A59F900DB49F900DA49FEA
:100F0000800D911D11240895B7FF0C9479070E945C
:100F10007907821B930B0895A1E21A2EAA1BBB1B13
:100F2000FD010DC0AA1FBB1FEE1FFF1FA217B307B5
:100F3000E407F50720F0A21BB30BE40BF50B661FCB
:100F4000771F881F991F1A9469F76095709580958F
:100F500090959B01AC01BD01CF010895A29FB00106
:100F6000B39FC001A39F700D811D1124911DB29FDD
:100F7000700D811D1124911D0895991B79E004C005
:100F8000991F961708F0961B881F7A95C9F78095C8
:100F90000895EE0FFF1F0590F491E02D099481E074
:0C0FA00090E0F8940C94D407F894FFCF74
:100FAC00000000001E018700B6006501E700C500C7
:060FBC00D9000D0A00003F
:00000001FF
